{
  "transactions": [
    {
      "hash": "0xa70de2b286a8c9da79147071f865f67c80c8efd71fe5bff79024f5841fb8b615",
      "transactionType": "CALL",
      "contractName": null,
      "contractAddress": "0x8464135c8f25da09e49bc8782676a84730c318bc",
      "function": "resolve(uint8[])",
      "arguments": [
        "[100, 0]"
      ],
      "transaction": {
        "from": "0x70997970c51812dc3a010c7d01b50e0d17dc79c8",
        "to": "0x8464135c8f25da09e49bc8782676a84730c318bc",
        "gas": "0x234cc",
        "value": "0x0",
        "input": "0xb87283ff0000000000000000000000000000000000000000000000000000000000000020000000000000000000000000000000000000000000000000000000000000000200000000000000000000000000000000000000000000000000000000000000640000000000000000000000000000000000000000000000000000000000000000",
        "nonce": "0x1",
        "chainId": "0x7a69"
      },
      "additionalContracts": [],
      "isFixedGasLimit": false
    }
  ],
  "receipts": [
    {
      "status": "0x1",
      "cumulativeGasUsed": "0x198e8",
      "logs": [],
      "logsBloom": "0x00000000000000000000000000000000000000000000000000000000000000000000000000000000000000000000000000000000000000000000000000000000000000000000000000000000000000000000000000000000000000000000000000000000000000000000000000000000000000000000000000000000000000000000000000000000000000000000000000000000000000000000000000000000000000000000000000000000000000000000000000000000000000000000000000000000000000000000000000000000000000000000000000000000000000000000000000000000000000000000000000000000000000000000000000000000",
      "type": "0x2",
      "transactionHash": "0xa70de2b286a8c9da79147071f865f67c80c8efd71fe5bff79024f5841fb8b615",
      "transactionIndex": "0x0",
      "blockHash": "0x3eeaa456cc3da1738ec4977e2b684e8ec29347b621d5df57467c53c8c6db6647",
      "blockNumber": "0x7",
      "gasUsed": "0x198e8",
      "effectiveGasPrice": "0x1b5fec2d",
      "blobGasPrice": "0x1",
      "from": "0x70997970c51812dc3a010c7d01b50e0d17dc79c8",
      "to": "0x8464135c8f25da09e49bc8782676a84730c318bc",
      "contractAddress": null
    }
  ],
  "libraries": [],
  "pending": [],
  "returns": {},
  "timestamp": 1730997346,
  "chain": 31337,
  "commit": "4758976"
}